{
  "_format": "hh-sol-artifact-1",
  "contractName": "PropertyRegistry",
  "sourceName": "contracts/PropertyRegistry.sol",
  "abi": [
    {
      "anonymous": false,
      "inputs": [
        {
          "indexed": true,
          "internalType": "uint256",
          "name": "id",
          "type": "uint256"
        },
        {
          "indexed": true,
          "internalType": "address",
          "name": "owner",
          "type": "address"
        },
        {
          "indexed": false,
          "internalType": "string",
          "name": "name",
          "type": "string"
        },
        {
          "indexed": false,
          "internalType": "string",
          "name": "location",
          "type": "string"
        },
        {
          "indexed": false,
          "internalType": "uint256",
          "name": "value",
          "type": "uint256"
        }
      ],
      "name": "PropertyRegistered",
      "type": "event"
    },
    {
      "anonymous": false,
      "inputs": [
        {
          "indexed": true,
          "internalType": "uint256",
          "name": "id",
          "type": "uint256"
        },
        {
          "indexed": true,
          "internalType": "address",
          "name": "previousOwner",
          "type": "address"
        },
        {
          "indexed": true,
          "internalType": "address",
          "name": "newOwner",
          "type": "address"
        }
      ],
      "name": "PropertyTransferred",
      "type": "event"
    },
    {
      "inputs": [],
      "name": "getPropertyCount",
      "outputs": [
        {
          "internalType": "uint256",
          "name": "",
          "type": "uint256"
        }
      ],
      "stateMutability": "view",
      "type": "function"
    },
    {
      "inputs": [
        {
          "internalType": "uint256",
          "name": "_propertyId",
          "type": "uint256"
        }
      ],
      "name": "getPropertyInfo",
      "outputs": [
        {
          "internalType": "address",
          "name": "owner",
          "type": "address"
        },
        {
          "internalType": "string",
          "name": "name",
          "type": "string"
        },
        {
          "internalType": "string",
          "name": "location",
          "type": "string"
        },
        {
          "internalType": "uint256",
          "name": "value",
          "type": "uint256"
        }
      ],
      "stateMutability": "view",
      "type": "function"
    },
    {
      "inputs": [
        {
          "internalType": "uint256",
          "name": "",
          "type": "uint256"
        }
      ],
      "name": "properties",
      "outputs": [
        {
          "internalType": "address",
          "name": "owner",
          "type": "address"
        },
        {
          "internalType": "string",
          "name": "name",
          "type": "string"
        },
        {
          "internalType": "string",
          "name": "location",
          "type": "string"
        },
        {
          "internalType": "uint256",
          "name": "value",
          "type": "uint256"
        }
      ],
      "stateMutability": "view",
      "type": "function"
    },
    {
      "inputs": [],
      "name": "propertyCount",
      "outputs": [
        {
          "internalType": "uint256",
          "name": "",
          "type": "uint256"
        }
      ],
      "stateMutability": "view",
      "type": "function"
    },
    {
      "inputs": [
        {
          "internalType": "string",
          "name": "_name",
          "type": "string"
        },
        {
          "internalType": "string",
          "name": "_location",
          "type": "string"
        },
        {
          "internalType": "uint256",
          "name": "_value",
          "type": "uint256"
        }
      ],
      "name": "registerProperty",
      "outputs": [],
      "stateMutability": "nonpayable",
      "type": "function"
    },
    {
      "inputs": [
        {
          "internalType": "uint256",
          "name": "_propertyId",
          "type": "uint256"
        },
        {
          "internalType": "address",
          "name": "_newOwner",
          "type": "address"
        }
      ],
      "name": "transferProperty",
      "outputs": [],
      "stateMutability": "nonpayable",
      "type": "function"
    }
  ],
  "bytecode": "0x608060405234801561001057600080fd5b50610d4b806100206000396000f3fe608060405234801561001057600080fd5b50600436106100625760003560e01c806340f0a055146100675780637326b9011461009a578063c361a335146100b8578063d0008e5b146100d6578063f7b10808146100f2578063ff35623714610125575b600080fd5b610081600480360381019061007c91906107b5565b610141565b60405161009194939291906108cb565b60405180910390f35b6100a26102b7565b6040516100af919061091e565b60405180910390f35b6100c06102c1565b6040516100cd919061091e565b60405180910390f35b6100f060048036038101906100eb9190610a6e565b6102c7565b005b61010c600480360381019061010791906107b5565b610412565b60405161011c94939291906108cb565b60405180910390f35b61013f600480360381019061013a9190610b25565b610572565b005b600060608060008060008087815260200190815260200160002090508060000160009054906101000a900473ffffffffffffffffffffffffffffffffffffffff168160010182600201836003015482805461019b90610b94565b80601f01602080910402602001604051908101604052809291908181526020018280546101c790610b94565b80156102145780601f106101e957610100808354040283529160200191610214565b820191906000526020600020905b8154815290600101906020018083116101f757829003601f168201915b5050505050925081805461022790610b94565b80601f016020809104026020016040519081016040528092919081815260200182805461025390610b94565b80156102a05780601f10610275576101008083540402835291602001916102a0565b820191906000526020600020905b81548152906001019060200180831161028357829003601f168201915b505050505091509450945094509450509193509193565b6000600154905090565b60015481565b600160008154809291906102da90610bf5565b919050555060405180608001604052803373ffffffffffffffffffffffffffffffffffffffff16815260200184815260200183815260200182815250600080600154815260200190815260200160002060008201518160000160006101000a81548173ffffffffffffffffffffffffffffffffffffffff021916908373ffffffffffffffffffffffffffffffffffffffff160217905550602082015181600101908051906020019061038d9291906106c8565b5060408201518160020190805190602001906103aa9291906106c8565b50606082015181600301559050503373ffffffffffffffffffffffffffffffffffffffff166001547ff78be3c6305ed1d283f13636ed7ad55fea081be8d7083f165b2ad514df8cadd385858560405161040593929190610c3e565b60405180910390a3505050565b60006020528060005260406000206000915090508060000160009054906101000a900473ffffffffffffffffffffffffffffffffffffffff169080600101805461045b90610b94565b80601f016020809104026020016040519081016040528092919081815260200182805461048790610b94565b80156104d45780601f106104a9576101008083540402835291602001916104d4565b820191906000526020600020905b8154815290600101906020018083116104b757829003601f168201915b5050505050908060020180546104e990610b94565b80601f016020809104026020016040519081016040528092919081815260200182805461051590610b94565b80156105625780601f1061053757610100808354040283529160200191610562565b820191906000526020600020905b81548152906001019060200180831161054557829003601f168201915b5050505050908060030154905084565b3373ffffffffffffffffffffffffffffffffffffffff1660008084815260200190815260200160002060000160009054906101000a900473ffffffffffffffffffffffffffffffffffffffff1673ffffffffffffffffffffffffffffffffffffffff1614610615576040517f08c379a000000000000000000000000000000000000000000000000000000000815260040161060c90610cf5565b60405180910390fd5b8060008084815260200190815260200160002060000160006101000a81548173ffffffffffffffffffffffffffffffffffffffff021916908373ffffffffffffffffffffffffffffffffffffffff1602179055508073ffffffffffffffffffffffffffffffffffffffff163373ffffffffffffffffffffffffffffffffffffffff16837f2231fc8bc2c20e26d85d66dc7f13a6b6d535c86d2a4d678bb2de61f5b713608360405160405180910390a45050565b8280546106d490610b94565b90600052602060002090601f0160209004810192826106f6576000855561073d565b82601f1061070f57805160ff191683800117855561073d565b8280016001018555821561073d579182015b8281111561073c578251825591602001919060010190610721565b5b50905061074a919061074e565b5090565b5b8082111561076757600081600090555060010161074f565b5090565b6000604051905090565b600080fd5b600080fd5b6000819050919050565b6107928161077f565b811461079d57600080fd5b50565b6000813590506107af81610789565b92915050565b6000602082840312156107cb576107ca610775565b5b60006107d9848285016107a0565b91505092915050565b600073ffffffffffffffffffffffffffffffffffffffff82169050919050565b600061080d826107e2565b9050919050565b61081d81610802565b82525050565b600081519050919050565b600082825260208201905092915050565b60005b8381101561085d578082015181840152602081019050610842565b8381111561086c576000848401525b50505050565b6000601f19601f8301169050919050565b600061088e82610823565b610898818561082e565b93506108a881856020860161083f565b6108b181610872565b840191505092915050565b6108c58161077f565b82525050565b60006080820190506108e06000830187610814565b81810360208301526108f28186610883565b905081810360408301526109068185610883565b905061091560608301846108bc565b95945050505050565b600060208201905061093360008301846108bc565b92915050565b600080fd5b600080fd5b7f4e487b7100000000000000000000000000000000000000000000000000000000600052604160045260246000fd5b61097b82610872565b810181811067ffffffffffffffff8211171561099a57610999610943565b5b80604052505050565b60006109ad61076b565b90506109b98282610972565b919050565b600067ffffffffffffffff8211156109d9576109d8610943565b5b6109e282610872565b9050602081019050919050565b82818337600083830152505050565b6000610a11610a0c846109be565b6109a3565b905082815260208101848484011115610a2d57610a2c61093e565b5b610a388482856109ef565b509392505050565b600082601f830112610a5557610a54610939565b5b8135610a658482602086016109fe565b91505092915050565b600080600060608486031215610a8757610a86610775565b5b600084013567ffffffffffffffff811115610aa557610aa461077a565b5b610ab186828701610a40565b935050602084013567ffffffffffffffff811115610ad257610ad161077a565b5b610ade86828701610a40565b9250506040610aef868287016107a0565b9150509250925092565b610b0281610802565b8114610b0d57600080fd5b50565b600081359050610b1f81610af9565b92915050565b60008060408385031215610b3c57610b3b610775565b5b6000610b4a858286016107a0565b9250506020610b5b85828601610b10565b9150509250929050565b7f4e487b7100000000000000000000000000000000000000000000000000000000600052602260045260246000fd5b60006002820490506001821680610bac57607f821691505b60208210811415610bc057610bbf610b65565b5b50919050565b7f4e487b7100000000000000000000000000000000000000000000000000000000600052601160045260246000fd5b6000610c008261077f565b91507fffffffffffffffffffffffffffffffffffffffffffffffffffffffffffffffff821415610c3357610c32610bc6565b5b600182019050919050565b60006060820190508181036000830152610c588186610883565b90508181036020830152610c6c8185610883565b9050610c7b60408301846108bc565b949350505050565b7f596f7520617265206e6f7420746865206f776e6572206f66207468697320707260008201527f6f70657274792e00000000000000000000000000000000000000000000000000602082015250565b6000610cdf60278361082e565b9150610cea82610c83565b604082019050919050565b60006020820190508181036000830152610d0e81610cd2565b905091905056fea26469706673582212202a62bef8f4e1ca93583212210da10e4a2cc2ea79485544c1d2944e9a1f480c3364736f6c63430008090033",
  "linkReferences": {},
  "deployedLinkReferences": {}
}